S00E00007465737420312E7372656305
S1130000EDC0000090C50000B7C50000DEC50000CB
S113001005C600002CC6000053C600007AC60000C6
S1130020A1C60000C8C60000EFC6000016C7000045
S11300303DC7000064C700008BC70000B2C70000C2
S1130040D9C700000C9423080C944C080C94750830
S11300500C949E080C94C7080C94F0080C9419098D
S11300600C9443090C946C090C9496090C94C009E3
S11300700C94EA090C94140A0C943E0A0C94670A32
S11300800C94910A0C94BB0A0C94E40A6E616E0001
S1130090696E660000407A10F35A00A0724E180987
S11300A00010A5D4E80000E87648170000E40B54DB
S11300B0020000CA9A3B000000E1F50500008096AA
S11300C09800000040420F000000A08601000000DC
S11300D0102700000000E803000000006400000096
S11300E000000A00000000000100000000002C765F
S11300F0D888DC674F0823DFC1DFAE59E1B1B7967A
S1130100E5E3E453C63AE651997696E8E6C28426D6
S1130110EB898C9B62ED407C6FFCEFBC9C9F40F2B2
S1130120BAA56FA5F490055A2AF75C936B6CF9672E
S11301306DC11BFCE0E40D47FEF520E6B500D0EDF3
S1130140902E0300943577050080841E080000205B
S11301504E0A000000C80C333333330F986E1283F9
S11301601141EF8D2114893BE65516CFFEE6DB18CD
S1130170D1844B381BF77C1D901DA4BBE424203292
S113018084725E228100C9F124ECA1E53D276364F9
S1130190696E6F70737578585B656667454647008E
S11301A0616E006E66696E69747900CDCCCC3D0ACF
S11301B0D7233C17B7D13877CC2B329595E6241F3B
S11301C0B14F0A000020410000C84200401C4620F4
S11301D0BCBE4CCA1B0E5AAEC59D740011241FBE72
S11301E0CFEFD0E1DEBFCDBF11E0A0E0B1E0E6E5A6
S11301F0F1E300E00BBF02C007900D92AE34B107EB
S1130200D9F721E0AEE4B1E001C01D92A938B207EC
S1130210E1F70E940D0D0C94A9180E94850B0E9411
S11302208F0C40E551E061E090E080E00C94130B0A
S113023008958091610190916201009711F00C94EE
S11302401B0B08958091750190917601009711F030
S11302500C941B0B089580916301909164010097A5
S113026011F00C941B0B0895809177019091780103
S1130270009711F00C941B0B089508950895809134
S1130280650190916601009711F00C941B0B089581
S11302908091790190917A01009711F00C941B0BD5
S11302A008958091670190916801009711F00C9472
S11302B01B0B089580917B0190917C01009711F0B4
S11302C00C941B0B08950895089580915101909109
S11302D05201009711F00C941B0B08958091530167
S11302E090915401009711F00C941B0B0895809188
S11302F0550190915601009711F00C941B0B089531
S11303008091570190915801009711F00C941B0BA8
S113031008958091590190915A01009711F00C941D
S11303201B0B089580915B0190915C01009711F083
S11303300C941B0B089580915D0190915E010097D0
S113034011F00C941B0B089580915F019091600152
S1130350009711F00C941B0B089580916901909102
S11303606A01009711F00C941B0B0895E09122018F
S1130370F0912301309709F00995809173019091D0
S11303807401009711F00C941B0B0895E091120175
S1130390F0911301309709F0099580916F019091C4
S11303A07001009711F00C941B0B0895E091140157
S11303B0F0911501309709F0099580916B019091A6
S11303C06C01009711F00C941B0B0895E09102014D
S11303D0F0910301309709F0099580917101909192
S11303E07201009711F00C941B0B0895E091040125
S11303F0F0910501309709F0099580916D01909174
S11304006E01009711F00C941B0B089580917D01EF
S113041090917E01009711F00C941B0B089510929B
S1130420900081E189B98AB188618AB9E5E9F0E08F
S11304308081866080838AB1806C8AB908959B012B
S11304405D9BFECF8CB910924F0190E080E0821743
S1130450930709F4089500000196F9CF9A01FC016D
S1130460680F792F711DE617F70719F410924F01E1
S113047008955D9BFECF81918CB990E080E0821756
S1130480930789F300000196FACF1092980081E156
S113049080939900EAE9F0E0808188618083ADE986
S11304A0B0E08C9186608C938081806C8083089509
S11304B09B0190919B0095FFFCCF80939C00109230
S11304C04E0190E080E08217930709F4089500003C
S11304D00196F9CF9A01FC01680F792F711DE61777
S11304E0F70719F410924E01089580919B0085FF3F
S11304F0FCCF819180939C0090E080E08217930769
S113050071F300000196FACFAF92BF92CF92DF92BF
S1130510EF92FF920F931F93CF93DF93CDB7DEB784
S113052028970FB6F894DEBF0FBECDBF7C015A01E9
S113053010E000E0C62ED12C0C151D051CF0109205
S11305404F012DC0AE014F5F5F4F62E370E080E06A
S113055090E00E94F00B5F9B0DC08CB1F701E00F9F
S1130560F11F808390E080E08A159B0549F50F5FB9
S11305701F4FE2CF89819A81AB81BC818D839E8399
S1130580AF83B887BC01CD010E941A0C882319F3EC
S113059081E080934F010E0D1F1DD8011C922896F7
S11305A00FB6F894DEBF0FBECDBFDF91CF911F9180
S11305B00F91FF90EF90DF90CF90BF90AF90089590
S11305C000000196D1CFAF92BF92CF92DF92EF920B
S11305D0FF920F931F93CF93DF93CDB7DEB7289786
S11305E00FB6F894DEBF0FBECDBF7C015A0110E0F8
S11305F000E0C62ED12C0C151D051CF010924E01E6
S113060030C0AE014F5F5F4F62E370E080E090E086
S11306100E94F00B80919B0087FF0EC080919C008C
S1130620F701E00FF11F808390E080E08A159B05BD
S113063049F50F5F1F4FDFCF89819A81AB81BC8160
S11306408D839E83AF83B887BC01CD010E941A0CB1
S1130650882301F381E080934E010E0D1F1DD80104
S11306601C9228960FB6F894DEBF0FBECDBFDF9163
S1130670CF911F910F91FF90EF90DF90CF90BF909B
S1130680AF90089500000196D1CFEF92FF920F939F
S11306901F93CF93DF93CDB7DEB728970FB6F894A7
S11306A0DEBF0FBECDBF8C017B01AE014F5F5F4F3C
S11306B062E370E080E090E00E94F00B5F9B0DC06D
S11306C08CB1F801808310924F0190E080E08E1588
S11306D09F05B1F000000196FACF89819A81AB8120
S11306E0BC818D839E83AF83B887BC01CD010E94FA
S11306F01A0C882319F381E080934F01D8011C92CE
S113070028960FB6F894DEBF0FBECDBFDF91CF9110
S11307101F910F91FF90EF900895EF92FF920F9326
S11307201F93CF93DF93CDB7DEB728970FB6F89416
S1130730DEBF0FBECDBF8C017B01AE014F5F5F4FAB
S113074062E370E080E090E00E94F00B80919B00F7
S113075087FF0EC080919C00F801808310924E01A7
S113076090E080E08E159F05B1F000000196FACF6D
S113077089819A81AB81BC818D839E83AF83B88745
S1130780BC01CD010E941A0C882301F381E08093FF
S11307904E01D8011C9228960FB6F894DEBF0FBE06
S11307A0CDBFDF91CF911F910F91FF90EF900895EE
S11307B087B3887F87BBBB9A80E48DB96F9A78949E
S11307C008958FB908958FB10895FF920F931F93E1
S11307D0CF93DF93CDB7DEB728970FB6F894DEBF7B
S11307E00FBECDBF182FF92E062F080FAE014F5F95
S11307F05F4F62E370E080E090E0F2D7779B09C03E
S1130800E12FFF2D8FB181930E17A1F01E2FFF2E24
S1130810EDCF89819A81AB81BC818D839E83AF8327
S1130820B887BC01CD010E941A0C882339F381E0FA
S113083080933F0128960FB6F894DEBF0FBECDBF5C
S1130840DF91CF911F910F91FF900895CF93DF9384
S1130850CDB7DEB728970FB6F894DEBF0FBECDBF75
S1130860AE014F5F5F4F62E370E080E090E0B8D785
S1130870779B02C08FB111C089819A81AB81BC8101
S11308808D839E83AF83B887BC01CD01D3D78823E2
S113089079F381E080933F0180E028960FB6F894C5
S11308A0DEBF0FBECDBFDF91CF910895FF920F93AE
S11308B01F93CF93DF93CDB7DEB728970FB6F89485
S11308C0DEBF0FBECDBF8C01F62EF80EF80180817D
S11308D00F5F1F4F8FB9AE014F5F5F4F62E370E050
S11308E080E090E07DD7779B03C0F012EFCF10C07B
S11308F089819A81AB81BC818D839E83AF83B887C4
S1130900BC01CD0197D7882371F381E080933F0127
S113091028960FB6F894DEBF0FBECDBFDF91CF91FE
S11309201F910F91FF900895CF93DF93CDB7DEB75A
S113093028970FB6F894DEBF0FBECDBF8FB9AE01B6
S11309404F5F5F4F62E370E080E090E049D77799B2
S113095010C089819A81AB81BC818D839E83AF83D2
S1130960B887BC01CD0166D7882389F381E08093E1
S11309703F0128960FB6F894DEBF0FBECDBFDF91BE
S1130980CF910895DF92EF92FF920F931F93CF932D
S1130990DF93CDB7DEB728970FB6F894DEBF0FBE4E
S11309A0CDBF7B018C01D42ED80EF80180810F5F5E
S11309B01F4F8FB9AE014F5F5F4F62E370E080E07D
S11309C090E00ED7779B07C0F7018FB18193D016C3
S11309D091F07F01EACF89819A81AB81BC818D83BB
S11309E09E83AF83B887BC01CD0124D7882351F3FC
S11309F081E080933F0128960FB6F894DEBF0FBEC6
S1130A00CDBFDF91CF911F910F91FF90EF90DF90B9
S1130A100895CF93DF93CDB7DEB728970FB6F89438
S1130A20DEBF0FBECDBF8FB9AE014F5F5F4F62E334
S1130A3070E080E090E0D4D6779B02C08FB111C003
S1130A4089819A81AB81BC818D839E83AF83B88772
S1130A50BC01CD01EFD6882379F381E080933F0177
S1130A6080E028960FB6F894DEBF0FBECDBFDF91AD
S1130A70CF91089554D787B3876087BBBB98E1E6CD
S1130A80F0E08081806180838DB183658DB90895A4
S1130A90883000F18A30C1F028F4883031F0893090
S1130AA039F008958B3099F00895BC9AC49A08954A
S1130AB098B387B321E030E001C0220F9A95EAF79A
S1130AC0822B87BBC59A0895BE9AC69A0895BF9A89
S1130AD0C79A0895809162008061809362000895AE
S1130AE08830B8F08A3079F028F4883031F08930D1
S1130AF039F008958B3051F00895BC9AC498089544
S1130B00C59AC5980895C69AC6980895C79AC7986D
S1130B100895FAD6809162008F7E809362000895D2
S1130B2008950895D2CB1F920F920FB60F921124FD
S1130B300BB60F922F933F934F935F936F937F93D3
S1130B408F939F93AF93BF93EF93FF93EBDFFF914B
S1130B50EF91BF91AF919F918F917F916F915F9131
S1130B604F913F912F910F900BBE0F900FBE0F909E
S1130B701F9018950895B2CB1F920F920FB60F9243
S1130B8011240BB60F922F933F934F935F936F9360
S1130B907F938F939F93AF93BF93EF93FF93EBDF79
S1130BA0FF91EF91BF91AF919F918F917F916F9141
S1130BB05F914F913F912F910F900BBE0F900FBEFD
S1130BC00F901F901895089592CB1F920F920FB615
S1130BD00F9211240BB60F922F933F934F935F9371
S1130BE06F937F938F939F93AF93BF93EF93FF93F1
S1130BF0EBDFFF91EF91BF91AF919F918F917F9127
S1130C006F915F914F913F912F910F900BBE0F9079
S1130C100FBE0F901F901895089572CB1F920F92DC
S1130C200FB60F9211240BB60F922F933F934F934D
S1130C305F936F937F938F939F93AF93BF93EF9340
S1130C40FF93EBDFFF91EF91BF91AF919F918F9154
S1130C507F916F915F914F913F912F910F900BBEB8
S1130C600F900FBE0F901F901895089552CB1F92AE
S1130C700F920FB60F9211240BB60F922F933F933E
S1130C804F935F936F937F938F939F93AF93BF9390
S1130C90EF93FF93EBDFFF91EF91BF91AF919F91A2
S1130CA08F917F916F915F914F913F912F910F9011
S1130CB00BBE0F900FBE0F901F901895089532CB66
S1130CC01F920F920FB60F9211240BB60F922F930F
S1130CD03F934F935F936F937F938F939F93AF93C0
S1130CE0BF93EF93FF93EBDFFF91EF91BF91AF9130
S1130CF09F918F917F916F915F914F913F912F9130
S1130D000F900BBE0F900FBE0F901F901895089573
S1130D1012CB1F920F920FB60F9211240BB60F92A3
S1130D202F933F934F935F936F937F938F939F93EF
S1130D30AF93BF93EF93FF93EBDFFF91EF91BF91DD
S1130D40AF919F918F917F916F915F914F913F915F
S1130D502F910F900BBE0F900FBE0F901F90189500
S1130D600895F2CA1F920F920FB60F9211240BB678
S1130D700F922F933F934F935F936F937F938F9330
S1130D809F93AF93BF93EF93FF93EBDFFF91EF91AB
S1130D90BF91AF919F918F917F916F915F914F918F
S1130DA03F912F910F900BBE0F900FBE0F901F908D
S1130DB0189508956DCA1F920F920FB60F921124C1
S1130DC00BB60F922F933F934F935F936F937F9341
S1130DD08F939F93AF93BF93EF93FF93EBDFFF91B9
S1130DE0EF91BF91AF919F918F917F916F915F919F
S1130DF04F913F912F910F900BBE0F900FBE0F900C
S1130E001F90189508953BCA1F920F920FB60F9228
S1130E1011240BB60F922F933F934F935F936F93CD
S1130E207F938F939F93AF93BF93EF93FF93EBDFE6
S1130E30FF91EF91BF91AF919F918F917F916F91AE
S1130E405F914F913F912F910F900BBE0F900FBE6A
S1130E500F901F9018950895FECF1F920F920FB612
S1130E600F9211240BB60F922F933F934F935F93DE
S1130E706F937F938F939F93AF93BF93EF93FF935E
S1130E80EBDFFF91EF91BF91AF919F918F917F9194
S1130E906F915F914F913F912F910F900BBE0F90E7
S1130EA00FBE0F901F9018950895DEC91F920F92E0
S1130EB00FB60F9211240BB60F922F933F934F93BB
S1130EC05F936F937F938F939F93AF93BF93EF93AE
S1130ED0FF93EBDFFF91EF91BF91AF919F918F91C2
S1130EE07F916F915F914F913F912F910F900BBE26
S1130EF00F900FBE0F901F9018950895BEC91F92B2
S1130F000F920FB60F9211240BB60F922F933F93AB
S1130F104F935F936F937F938F939F93AF93BF93FD
S1130F20EF93FF93EBDFFF91EF91BF91AF919F910F
S1130F308F917F916F915F914F913F912F910F907E
S1130F400BBE0F900FBE0F901F901895089583C984
S1130F501F920F920FB60F9211240BB60F922F937C
S1130F603F934F935F936F937F938F939F93AF932D
S1130F70BF93EF93FF93EBDFFF91EF91BF91AF919D
S1130F809F918F917F916F915F914F913F912F919D
S1130F900F900BBE0F900FBE0F901F9018950895E1
S1130FA051C91F920F920FB60F9211240BB60F92D4
S1130FB02F933F934F935F936F937F938F939F935D
S1130FC0AF93BF93EF93FF93EBDFFF91EF91BF914B
S1130FD0AF919F918F917F916F915F914F913F91CD
S1130FE02F910F900BBE0F900FBE0F901F9018956E
S1130FF008951FC91F920F920FB60F9211240BB6BA
S11310000F922F933F934F935F936F937F938F939D
S11310109F93AF93BF93EF93FF93EBDFFF91EF9118
S1131020BF91AF919F918F917F916F915F914F91FC
S11310303F912F910F900BBE0F900FBE0F901F90FA
S11310401895089593C91F920F920FB60F92112409
S11310500BB60F922F933F934F935F936F937F93AE
S11310608F939F93AF93BF93EF93FF93EBDFFF9126
S1131070EF91BF91AF919F918F917F916F915F910C
S11310804F913F912F910F900BBE0F900FBE0F9079
S11310901F90189508958AC91F920F920FB60F9248
S11310A011240BB60F922F933F934F935F936F933B
S11310B07F938F939F93AF93BF93EF93FF93EBDF54
S11310C0FF91EF91BF91AF919F918F917F916F911C
S11310D05F914F913F912F910F900BBE0F900FBED8
S11310E00F901F9018950895FECF1F920F920FB680
S11310F00F9211240BB60F922F933F934F935F934C
S11311006F937F938F939F93AF93BF93EF93FF93CB
S1131110EBDFFF91EF91BF91AF919F918F917F9101
S11311206F915F914F913F912F910F900BBE0F9054
S11311300FBE0F901F901895089528C91F920F9203
S11311400FB60F9211240BB60F922F933F934F9328
S11311505F936F937F938F939F93AF93BF93EF931B
S1131160FF93EBDFFF91EF91BF91AF919F918F912F
S11311707F916F915F914F913F912F910F900BBE93
S11311800F900FBE0F901F90189508953FC91F929E
S11311900F920FB60F9211240BB60F922F933F9319
S11311A04F935F936F937F938F939F93AF93BF936B
S11311B0EF93FF93EBDFFF91EF91BF91AF919F917D
S11311C08F917F916F915F914F913F912F910F90EC
S11311D00BBE0F900FBE0F901F9018950895FECF71
S11311E01F920F920FB60F9211240BB60F922F93EA
S11311F03F934F935F936F937F938F939F93AF939B
S1131200BF93EF93FF93EBDFFF91EF91BF91AF910A
S11312109F918F917F916F915F914F913F912F910A
S11312200F900BBE0F900FBE0F901F90189508954E
S1131230FECF1F920F920FB60F9211240BB60F928E
S11312402F933F934F935F936F937F938F939F93CA
S1131250AF93BF93EF93FF93EBDFFF91EF91BF91B8
S1131260AF919F918F917F916F915F914F913F913A
S11312702F910F900BBE0F900FBE0F901F901895DB
S113128008950C943E011F920F920FB60F921124F1
S11312900BB60F922F933F934F935F936F937F936C
S11312A08F939F93AF93BF93EF93FF93EADFFF91E5
S11312B0EF91BF91AF919F918F917F916F915F91CA
S11312C04F913F912F910F900BBE0F900FBE0F9037
S11312D01F9018950895FECF1F920F920FB60F928C
S11312E011240BB60F922F933F934F935F936F93F9
S11312F07F938F939F93AF93BF93EF93FF93EBDF12
S1131300FF91EF91BF91AF919F918F917F916F91D9
S11313105F914F913F912F910F900BBE0F900FBE95
S11313200F901F90189508950C945A011F920F92D4
S11313300FB60F9211240BB60F922F933F934F9336
S11313405F936F937F938F939F93AF93BF93EF9329
S1131350FF93EADFFF91EF91BF91AF919F918F913E
S11313607F916F915F914F913F912F910F900BBEA1
S11313700F900FBE0F901F90189508950C94630161
S11313801F920F920FB60F9211240BB60F922F9348
S11313903F934F935F936F937F938F939F93AF93F9
S11313A0BF93EF93FF93EADFFF91EF91BF91AF916A
S11313B09F918F917F916F915F914F913F912F9169
S11313C00F900BBE0F900FBE0F901F9018950895AD
S11313D00C9464011F920F920FB60F9211240BB656
S11313E00F922F933F934F935F936F937F938F93BA
S11313F09F93AF93BF93EF93FF93EADFFF91EF9136
S1131400BF91AF919F918F917F916F915F914F9118
S11314103F912F910F900BBE0F900FBE0F901F9016
S1131420189508950C9451011F920F920FB60F92C4
S113143011240BB60F922F933F934F935F936F93A7
S11314407F938F939F93AF93BF93EF93FF93EADFC1
S1131450FF91EF91BF91AF919F918F917F916F9188
S11314605F914F913F912F910F900BBE0F900FBE44
S11314700F901F90189508950C94F6011F920F92E7
S11314800FB60F9211240BB60F922F933F934F93E5
S11314905F936F937F938F939F93AF93BF93EF93D8
S11314A0FF93EADFFF91EF91BF91AF919F918F91ED
S11314B07F916F915F914F913F912F910F900BBE50
S11314C00F900FBE0F901F9018950895FECF1F9296
S11314D00F920FB60F9211240BB60F922F933F93D6
S11314E04F935F936F937F938F939F93AF93BF9328
S11314F0EF93FF93EBDFFF91EF91BF91AF919F913A
S11315008F917F916F915F914F913F912F910F90A8
S11315100BBE0F900FBE0F901F90189508950C945A
S1131520E6011F920F920FB60F9211240BB60F9281
S11315302F933F934F935F936F937F938F939F93D7
S1131540AF93BF93EF93FF93EADFFF91EF91BF91C6
S1131550AF919F918F917F916F915F914F913F9147
S11315602F910F900BBE0F900FBE0F901F901895E8
S113157008950C94AD011F920F920FB60F9211248F
S11315800BB60F922F933F934F935F936F937F9379
S11315908F939F93AF93BF93EF93FF93EADFFF91F2
S11315A0EF91BF91AF919F918F917F916F915F91D7
S11315B04F913F912F910F900BBE0F900FBE0F9044
S11315C01F9018950895FECF1F920F920FB60F9299
S11315D011240BB60F922F933F934F935F936F9306
S11315E07F938F939F93AF93BF93EF93FF93EBDF1F
S11315F0FF91EF91BF91AF919F918F917F916F91E7
S11316005F914F913F912F910F900BBE0F900FBEA2
S11316100F901F901895282F792FCA01462F50E05C
S1131620622F0C949318282F792FCA01462F50E06B
S1131630622F0C9483180F931F93CF93DF93EC01C5
S113164010E005E0892BB9F4DF91CF911F910F9140
S11316500895AA81BB81109FA00DB11D11248C9106
S1131660882341F01196ED91FC91129713968D9178
S11316709C9109951F5F8981181758F3E5CFCF9383
S1131680DF93FC01818190818917C0F43097B1F018
S1131690A281B38195E0899FA00DB11D11241C92F4
S11316A012967C936E93119714965C934E931397B2
S11316B091E0980F9183DF91CF9108958FEFFBCF45
S11316C0FC01892B71F08181681748F40280F38151
S11316D0E02D85E0689FE00DF11D1124408380E03A
S11316E008958FEF0895CF93C82F8A3011F48DE0B9
S11316F0FADF5D9BFECFCCB990E080E0CF910895F6
S11317005F9BFECF8CB190E008951092900081E130
S113171089B98AB188618AB9E5E9F0E08081866097
S11317208083E3E8F1E080E491E093838283918312
S11317308083089510927F0110928001109281019C
S1131740109282010895CF93DF9300D000D0CDB7DB
S1131750DEB780917F0190918001A0918101B091C9
S11317608201BC01CD010F900F900F900F90DF917B
S1131770CF910895CF92DF92EF92FF92CF93DF93B0
S113178000D000D000D0CDB7DEB769837A838B83D5
S11317909C835E834D83C0907F01D0908001E09054
S11317A08101F090820128EE33E040E050E00E9495
S11317B05016C20ED31EE41EF51EED81FE81C082BA
S11317C0D182E282F38226960FB6F894DEBF0FBE72
S11317D0CDBFDF91CF91FF90EF90DF90CF90089530
S11317E00F931F93CF93DF9300D000D0CDB7DEB714
S11317F069837A838B839C8380917F01909180019C
S1131800A0918101B091820109811A812B813C81CF
S1131810800F911FA21FB31FFA0180839183A283BB
S1131820B3830F900F900F900F90DF91CF911F9182
S11318300F9108950F931F93CF93DF9300D000D09F
S1131840CDB7DEB769837A838B839C8340917F0114
S113185050918001609181017091820181E0098140
S11318601A812B813C81041715072607370708F0D6
S113187080E00F900F900F900F90DF91CF911F9108
S11318800F910895CF93DF9300D000D0CDB7DEB78A
S113189069837A838B839C8380917F0190918001FB
S11318A0A0918101B091820129813A814B815C81AF
S11318B0820F931FA41FB51F40917F015091800197
S11318C06091810170918201481759076A077B076B
S11318D098F30F900F900F900F90DF91CF91089590
S11318E080917F0190918001A0918101B09182014A
S11318F00196A11DB11D80937F0190938001A09357
S11319008101B09382010895883040F428B32F7187
S113191030E2839FC0011124822B88BB089587B3D2
S1131920806E87BB089587B3807F876087BBE1E6BD
S1131930F0E080818061808383E58DB981E08EB998
S113194008958FB9779BFECF8FB1089510929800B8
S113195081E180939900EAE9F0E0808188618083E5
S1131960EDE9F0E0808186608083089590919B008A
S113197095FFFCCF80939C00089580919B0087FF86
S1131980FCCF80919C000895CF93DF9300D01F92E9
S1131990CDB7DEB78B8380E00EC0A82F082E000CD5
S11319A0BB0BE3E0F0E0EC0FFD1FEA0FFB1F90819F
S11319B0D1969C938150882384F783B1886083B93E
S11319C080E00EC0A82F082E000CBB0BE1E0F0E075
S11319D0EC0FFD1FEA0FFB1FD0969C919083815062
S11319E0882384F783B1877F83B989819A810F9093
S11319F00F900F90DF91CF91089591B381BB83B184
S1131A008F7E83B982B3942F909589236423682BA6
S1131A1062BB83B1806183B908956F927F928F9284
S1131A209F92AF92BF92CF92DF92EF92FF920F9369
S1131A301F93CF93DF930E940D0187B3806787BB09
S1131A4082B1886182B988B318BA80E09DDF4C0105
S1131A50992480E890E0B4010E943D165B0100E007
S1131A6010E009C00F5F1F4FC50199230CF40196C4
S1131A705C01B594A79421E0A216B10499F70F2E46
S1131A80F7E0EF2EF12CF02DCC24CA94D12C2CC0ED
S1131A90A601BE018FEFB1DF8FEF9FEB26E08150EF
S1131AA090402040E1F700C00000CC0FDD1F8FEF15
S1131AB0681A780A03C0E401612C712CC8010196EC
S1131AC0681679062CF3950180E090E003C0220F9C
S1131AD0331F01968E159F05D4F391E0E91AF1089E
S1131AE0C21AD30A015011091016110624F3A401D5
S1131AF0B4018FEF82DF80E090E0DF91CF911F91FE
S1131B000F91FF90EF90DF90CF90BF90AF909F9098
S1131B108F907F906F9008952F923F924F925F9293
S1131B206F927F928F929F92AF92BF92CF92DF92E9
S1131B30EF92FF920F931F93CF93DF93CDB7DEB74E
S1131B4060970FB6F894DEBF0FBECDBF7C011B01BA
S1131B506A01FC0117821682838181FF39C39E01C9
S1131B602F5F3F4F3901F7019381F10193FD859177
S1131B7093FF81911F01882309F426C3853239F428
S1131B8093FD859193FF81911F01853239F4B7014B
S1131B9090E00E94CD1756016501E5CF10E0512C6D
S1131BA0912CFFE1F915D8F08B3279F038F48032BA
S1131BB079F08332A1F4F92DF0612EC08D3261F0F9
S1131BC0803369F4292D21602DC0392D3260932E84
S1131BD0892D8460982E2AC0E92DE86015C097FCF1
S1131BE02DC020ED280F2A3088F496FE06C03AE076
S1131BF0139F200D1124122F19C08AE0589E200D26
S1131C001124522EE92DE0629E2E10C08E3231F442
S1131C1096FCDAC2F92DF0649F2E08C08C3621F4AC
S1131C20292D2068922E02C0883641F4F10193FDDB
S1131C30859193FF81911F018111B3CF9BEB980F85
S1131C40933020F4992D9061805E07C09BE9980F32
S1131C50933008F066C1992D9F7E96FF16E09F731E
S1131C60992E853619F49064992E08C0863621F48D
S1131C70392F3068932E02C01111115097FE07C0FE
S1131C801C3350F444244394410E27E00BC0183015
S1131C9038F027E017E005C027E09CE3492E02C096
S1131CA0212F412C560184E0A80EB11CF60160815D
S1131CB0718182819381042DA3010E9486166C0197
S1131CC0F981FC87F0FF02C0F3FF06C091FC06C057
S1131CD092FE06C000E205C00DE203C00BE201C0A3
S1131CE000E08C858C7019F0011150C28DC297FEF2
S1131CF010C04C0CFC85F4FF04C08A81813309F4C4
S1131D004A94141474F528E0241578F588E0482ED4
S1131D102CC096FC2AC0812F90E08C159D059CF068
S1131D203CEFC3163FEFD30674F0892D8068982EDC
S1131D300AC0E2E0F0E0EC0FFD1FE10FF11D80812D
S1131D40803319F411501111F4CF97FE0EC04424BE
S1131D504394410E812F90E0C816D9062CF41C1927
S1131D6004C04424439401C010E097FE06C01C1430
S1131D701D0434F4C601019605C085E090E002C05C
S1131D8081E090E001110196112331F0212F30E020
S1131D902F5F3F4F820F931F252D30E0821793074B
S1131DA014F4581A01C0512C892D897049F4552016
S1131DB039F0B70180E290E00E94CD175A94F7CF32
S1131DC0002329F0B701802F90E00E94CD1793FCE7
S1131DD009C0552039F0B70180E390E00E94CD1787
S1131DE05A94F7CF97FE4CC04601D7FE02C0812C0F
S1131DF0912CC60188199909F301E80FF91FFE8790
S1131E00ED87960124193109388B2F87012F10E0B3
S1131E101195019511093FEF8316930629F4B70133
S1131E208EE290E00E94CD17C814D9044CF08F853F
S1131E3098898815990524F4ED85FE85818101C072
S1131E4080E3F1E08F1A91082D853E852F5F3F4F87
S1131E503E872D87801691062CF0B70190E00E94F2
S1131E60CD17D9CFC814D90441F49A81963320F4FC
S1131E70953319F43C8534FF81E3B70190E04EC0FB
S1131E808A81813319F09C859F7E9C87B70190E0FD
S1131E900E94CD17111105C094FC18C085E690E08E
S1131EA017C0B7018EE290E00E94CD171E5F82E05A
S1131EB001E0080FF301E80FF11D8081B70190E004
S1131EC00E94CD17802F0113F3CFE6CF85E490E075
S1131ED0B7010E94CD17D7FC06C0C114D10441F448
S1131EE0EC85E4FF05C0D194C194D1088DE201C012
S1131EF08BE2B70190E00E94CD1780E32AE0C2167E
S1131F00D1042CF08F5FFAE0CF1AD108F7CFB701D4
S1131F1090E00E94CD17B701C601C0960E94CD176C
S1131F204AC1833631F0833779F0833509F052C0E2
S1131F301FC0560132E0A30EB11CF60180818983D3
S1131F4001E010E0630111C05601F2E0AF0EB11CD4
S1131F50F601C080D18096FE03C0612F70E002C0FC
S1131F606FEF7FEFC601D0D78C01F92DFF7713C037
S1131F70560122E0A20EB11CF601C080D18096FE6B
S1131F8003C0612F70E002C06FEF7FEFC601B1D7CD
S1131F908C01F92DF0689F2EF3FD18C0852D90E07B
S1131FA00817190798F4B70180E290E0F6D75A941D
S1131FB0F5CFF60197FC859197FE81916F01B701EA
S1131FC090E0EBD751105A940150110901151105F5
S1131FD081F7F1C0843611F0893661F5560197FE18
S1131FE009C024E0A20EB11CF601608171818281D6
S1131FF093810AC0F2E0AF0EB11CF60160817181D9
S1132000072E000C880B990BF92DFF769F2E97FF56
S113201009C090958095709561957F4F8F4F9F4F24
S1132020F0689F2E2AE030E0A3010E942218C82EF7
S1132030C6183EC0092D853721F40F7E2AE030E012
S11320401DC0097F8F3691F018F4883559F0BCC053
S1132050803719F0883711F0B7C0006104FF09C058
S1132060046007C094FE08C0066006C028E030E0A3
S113207005C020E130E002C020E132E0560107FF54
S113208009C084E0A80EB11CF601608171818281CF
S1132090938108C0F2E0AF0EB11CF601608171813A
S11320A080E090E0A301CED7C82EC6180F77902EFB
S11320B096FE0BC0092D0E7FC11650F494FE0AC083
S11320C092FC08C0092D0E7E05C0DC2C092D03C02E
S11320D0DC2C01C0D12E04FF0DC0FE01EC0DF11D5E
S11320E08081803311F4097E09C002FF06C0D394B5
S11320F0D39404C0802F867809F0D39403FD10C0D4
S113210000FF06C01C2DD51478F4150D1D190CC044
S1132110D51450F4B70180E290E03FD7D394F8CFC0
S1132120D51410F45D1801C0512C04FF0FC0B70181
S113213080E390E032D702FF16C001FD03C088E7B8
S113214090E002C088E590E0B7010CC0802F86784B
S113215051F001FF02C08BE201C080E207FD8DE275
S1132160B70190E01AD7C11630F4B70180E390E0CC
S113217014D71150F8CFCA94F301EC0DF11D8081EE
S1132180B70190E00AD7C110F6CF15C0F4E0F515F9
S113219050F584E0581A93FE1EC0011125C02C8509
S11321A023FF27C00CE810E0392D3071932EF8017D
S11321B08491811121C0552009F4EECCB70180E24D
S11321C090E0EBD65A94F7CFF7018681978123C02C
S11321D08FEF9FEF20C0B70180E290E0DED65A94E3
S11321E05110F9CFDACF512CB701802F90E0D5D61A
S11321F0D6CF00E910E0D8CF91108052B70190E01B
S1132200CCD60F5F1F4FD3CF23E0251510F483E006
S1132210C1CF512CC4CF60960FB6F894DEBF0FBE69
S1132220CDBFDF91CF911F910F91FF90EF90DF9081
S1132230CF90BF90AF909F908F907F906F905F9062
S11322404F903F902F90089520FD09C0FC0123FD7D
S113225005C022FF02C073836283518340830895C3
S113226044FD17C046FD17C0AB01BC01DA01FB01F8
S1132270AA0FBB1FEE1FFF1F1094D1F74A0F5B1F5D
S11322806E1F7F1FCB01BA01660F771F881F991F2E
S113229009C033E001C034E0660F771F881F991F1F
S11322A03150D1F7620F711D811D911D08950F9357
S11322B01F93CF93DF938C01C80131D6EC0197FDB6
S11322C006C0FCD5892BC1F7B801CE01A2D6CE0138
S11322D0DF91CF911F910F9108958F929F92AF92AA
S11322E0BF92CF92DF92EF92FF920F931F93CF93FF
S11322F0DF937C018B016A01D22F11D69C01332715
S11323002B32310521F02D32310551F4D0680150C2
S1132310110911F480E064C0C70101D697FDFACF1A
S1132320CD2FCD7F2D2F207309F58033F9F458017B
S113233081E0A81AB10809F440C0C701F0D597FD9F
S11323403CC09C012F7D33272835310549F4C264F4
S11323500250110991F1C701E2D597FF07C02DC0C2
S1132360D6FF02C0C26001C0C2618501812C912CDC
S1132370540120ED280F283078F0C4FF03C0B701C2
S113238048D618C02A3040F0C6FFF9CF2F7D3FEE63
S1132390320F3630A0F727504C2FC501B40160DF4F
S11323A04B015C01C2600150110951F0C701B7D55E
S11323B097FFDFCFC1FD04C0ADCF812C912C540118
S11323C0C7FF08C0B094A09490948094811C911C81
S11323D0A11CB11C2C2FB501A401C60135DF81E07D
S11323E0DF91CF911F910F91FF90EF90DF90CF90ED
S11323F0BF90AF909F908F9008954F925F926F928D
S11324007F928F929F92AF92BF92CF92DF92EF9280
S1132410FF920F931F93CF93DF93CDB7DEB7A097AF
S11324200FB6F894DEBF0FBECDBF5C014B017A013D
S11324308E010F5F1F4F680180E2F80111928A95A7
S1132440E9F7F501538040E050E0612C90E0712CF5
S1132450A1E0B0E0F90153FC859153FE81918F0115
S1132460482E9F01811103C080E090E094C08E3516
S113247019F44115510551F1672D70E06417750782
S11324803CF48D3561F18D3219F4992311F103C0B7
S1132490992309F46BC0842D869586958695F6015B
S11324A0E80FF11D842D87708D0102C0000F111FEC
S11324B08A95E2F7C8019081892B8083641459F0CE
S11324C0461410F44394E7CF4A94E5CF77247394E9
S11324D003C091E001C090E04F5F5F4FBBCF9923F1
S11324E019F08E8180628E83711003C077247394F7
S11324F019C0F6019E012F5D3F4F80818095819325
S11325002E173F07D1F7F2CFE114F10431F0F701B0
S11325108083B7016F5F7F4F7B0171E0871A910859
S1132520712CE9F0C501FBD497FD17C0FC01FF270E
S113253023E0F595E7952A95E1F7EC0DFD1D208143
S113254030E0AC014770552702C0359527954A9570
S1132550E2F720FDD9CFB5015CD5711085CFE11428
S1132560F10411F0F7011082C80115C0682F6695B7
S113257066956695F601E60FF11D682F67708D016B
S113258002C0000F111F6A95E2F7B8017081672B32
S11325906083682EA1CFA0960FB6F894DEBF0FBE5D
S11325A0CDBFDF91CF911F910F91FF90EF90DF90FE
S11325B0CF90BF90AF909F908F907F906F905F90DF
S11325C04F9008952F923F924F925F926F927F9215
S11325D09F92AF92BF92CF92DF92EF92FF920F93AE
S11325E01F93CF93DF936C018B011A0198D4EC01F4
S11325F099278B32910529F08D9779F430E8932E41
S113260001C0912C0150110911F480E0FEC0C601F3
S113261086D4EC0197FF02C0F8CF912CCE0156D49A
S11326208936910531F08E36910581F5C0EAD1E005
S113263002C0C3EAD1E02196FE013197B490BB20D9
S1132640B1F00150110979F0C60169D47C0197FDFC
S11326500AC03CD49927EB2DF0E08E179F0759F35D
S1132660B601C701D6D4C65AD14079F603C0C35ABD
S1132670D14029F080E090E0A0E8BFE704C080E00A
S113268090E0A0ECBFE7BC01CD01AFC0412C512CC0
S11326903201E12CF12C2C2F20532A3008F5E92D9E
S11326A0E260BE2E892D887092FE06C081111FC083
S11326B0FFEFEF1AFF0A1BC0882319F081E0E81A24
S11326C0F10840E2C301B201CBDD2B013C016839C2
S11326D079498949994158F0F92DF660BF2E07C010
S11326E02E3F81F493FC0EC0292D2860B22E015098
S11326F0110939F0C60113D4EC019B2C97FFCBCF01
S113270001C09B2C91FE81CFCE018F7D992785340A
S1132710910509F03EC0580181E0A81AB10809F4F6
S113272074CFC601FCD3EC0197FD6FCF99278B3290
S1132730910529F08D9761F4E92DE0619E2E5801F1
S1132740F2E0AF1AB10809F460CFC601E8D3EC0196
S1132750CE01C0970A9708F058CF8501A12CB12C5F
S1132760B501BB0C880B990B2C2F205340E278DD6C
S11327705B010150110931F0C601D1D3EC01C097BE
S11327800A9770F394FE03C0B194A194B108EA0CC3
S1132790FB1C012B29F0D7FD03C0B601CE0139D4AF
S11327A0C301B20179D1F7FE06C0F194E194F108B6
S11327B0CFEBD1E002C0C7EDD1E06E0128E1C21A2F
S11327C0D10800E210E0E016F10648F0FE01259180
S11327D03591459154919DD1E01AF10AF4CF249793
S11327E016950795CC16DD0671F797FE05C0DC013A
S11327F0CB01B058BC01CD012114310429F0F10101
S1132800608371838283938381E0DF91CF911F91F1
S11328100F91FF90EF90DF90CF90BF90AF909F907B
S11328207F906F905F904F903F902F9008956F929C
S11328307F928F929F92AF92BF92CF92DF92EF924C
S1132840FF920F931F93CF93DF935C01EB014A0137
S1132850FC0117821682612CF5010381FE0103FD40
S1132860859103FF8191182FEF01882309F400C19A
S113287090E024D3892B19F0C50119DDEDCF153271
S113288041F4FE0103FD159103FF1191EF0115328F
S113289071F4C50144D397FDE9C0412F50E09C0178
S11328A0332724173507C1F2B501B3D3E1C01A3277
S11328B041F403FD159103FF1191EF017724739403
S11328C001C0712CE12CF12C20ED210F2A3080F471
S11328D0F72DF2607F2EB70180E090E040E2C0DC8B
S11328E07B01FE0103FD159103FF1191EF01ECCF74
S11328F071FE04C0E114F10421F4BAC0EE24EA9498
S1132900FE2C183619F01C3661F014C0FE0103FDCC
S1132910159103FF1191EF01183661F4872D88603A
S1132920782E972D9460792EFE0103FD159103FFF7
S11329301191EF01112309F49BC0612F70E08EE81F
S113294091E0CCD2892B09F493C070FC07C0F40148
S1132950C080D180C40102964C0102C0C12CD12C8C
S11329601E3649F4F5014681578160E070E0272D59
S1132970C6016ADC71CF1336B1F471FC03C0EE24D6
S1132980E394F12CC501CBD297FD70C0C114D104DE
S113299029F0F6018083C60101966C0191E0E91AE1
S11329A0F10881F75FC01B3551F49E01A601B70100
S11329B0C50123DDEC01892B09F054C04EC0C501CB
S11329C076DC97FD53C01F36C9F140F4143691F1FB
S11329D01936B9F1183509F03AC028C01337A9F0EF
S11329E018F4103719F133C0153721F11837F1F005
S11329F02EC0C114D10429F0F6010083C60101964A
S1132A006C0191E0E91AF10859F0C50188D28C01F2
S1132A1097FD06C053D2892B61F3B501C801F9D2E1
S1132A20C114D104F9F0F60110821CC0F72DF06432
S1132A307F2E07C0872D8062782E03C0972D90616A
S1132A40792E272DA601B701C50147DC04C0A601D4
S1132A50B701C501B7DD811105C0F501838180731C
S1132A6029F406C070FCF8CE6394F6CE662019F003
S1132A70862D90E002C08FEF9FEFDF91CF911F91E1
S1132A800F91FF90EF90DF90CF90BF90AF909F9009
S1132A908F907F906F900895E89409C097FB3EF45F
S1132AA090958095709561957F4F8F4F9F4F992397
S1132AB0A9F0F92F96E9BB279395F6958795779515
S1132AC06795B795F111F8CFFAF4BB0F11F460FFD5
S1132AD01BC06F5F7F4F8F4F9F4F16C0882311F02D
S1132AE096E911C0772321F09EE8872F762F05C041
S1132AF0662371F096E8862F70E060E02AF09A95DC
S1132B00660F771F881FDAF7880F9695879597F9D0
S1132B1008950BD078C069D028F06ED018F09523B2
S1132B2009F05AC05FC01124A2C07ED0A0F3959FC3
S1132B30D1F3950F50E0551F629FF001729FBB27A0
S1132B40F00DB11D639FAA27F00DB11DAA1F649F4C
S1132B506627B00DA11D661F829F2227B00DA11DFF
S1132B60621F739FB00DA11D621F839FA00D611D85
S1132B70221F749F3327A00D611D231F849F600DA6
S1132B80211D822F762F6A2F11249F5750408AF0DF
S1132B90E1F088234AF0EE0FFF1FBB1F661F771F6B
S1132BA0881F91505040A9F79E3F510570F014C002
S1132BB05EC05F3FECF3983EDCF3869577956795AE
S1132BC0B795F795E7959F5FC1F7FE2B880F911D89
S1132BD09695879597F9089597F99F6780E870E02F
S1132BE060E008959FEF80EC089500240A9416167F
S1132BF0170618060906089500240A9412161306E7
S1132C00140605060895092E0394000C11F4882374
S1132C1052F0BB0F40F4BF2B11F460FF04C06F5F90
S1132C207F4F8F4F9F4F089557FD9058440F551F66
S1132C3059F05F3F71F04795880F97FB991F61F03A
S1132C409F3F79F087950895121613061406551FB1
S1132C50F2CF4695F1DF08C0161617061806991F1D
S1132C60F1CF86957105610508940895E894BB2712
S1132C7066277727CB0197F9089597FB072E16F45B
S1132C80009406D077FD08D02DD007FC05D03EF483
S1132C90909581959F4F0895709561957F4F089504
S1132CA0A1E21A2EAA1BBB1BFD010DC0AA1FBB1F4C
S1132CB0EE1FFF1FA217B307E407F50720F0A21BBE
S1132CC0B30BE40BF50B661F771F881F991F1A942B
S1132CD069F760957095809590959B01AC01BD0155
S1132CE0CF010895AA1BBB1B51E107C0AA1FBB1F3C
S1132CF0A617B70710F0A61BB70B881F991F5A9584
S1132D00A9F780959095BC01CD010895283008F06D
S1132D1027E03327DA01990F311D87FD9160009672
S1132D206105710539F432602E5F3D9330E32A95D5
S1132D30E1F708959F3F30F080387105610509F08F
S1132D403C5F3C5F3D93913008F08068911DDF93B8
S1132D50CF931F930F93FF92EF92192F987F96951D
S1132D60E92F96959695E90FFF27E251FF4F992792
S1132D703327EE24FF24A701E70105900894079464
S1132D8028F4360FE71EF81E491F511D660F771FE2
S1132D90881F991F0694A1F70590079428F4E70E5D
S1132DA0F81E491F561FC11D770F881F991F661FE4
S1132DB00694A1F70590079428F4F80E491F561FAE
S1132DC0C71FD11D880F991F661F771F0694A1F78F
S1132DD00590079420F4490F561FC71FD81F990F59
S1132DE0661F771F881F0694A9F7849110951770A2
S1132DF041F0D695C79557954795F794E7941A955A
S1132E00C1F7E4E9F0E06894159015913591659166
S1132E10959105907FE27395E118F10A430B560BE7
S1132E20C90BD009C0F7E10CF11E431F561FC91F7F
S1132E30D01D7EF4703311F48A95E6CFE8940150E6
S1132E4030F0080F0AF40027021708F4202F239506
S1132E50022F7A3328F079E37D932A95E9F710C09D
S1132E607D932A9589F606949795679537951795D6
S1132E701794E118F10A430B560BC90BD00998F0CB
S1132E8023957E9173957A3308F070E37C93201335
S1132E90B8F77E9170617D9330F0839571E37D93F3
S1132EA070E32A95E1F71124EF90FF900F911F91A1
S1132EB0CF91DF91992787FD90950895911120C1B5
S1132EC0803219F089508550D0F7089591110895F2
S1132ED081548A5108F4805E855A0895FC01059056
S1132EE0061621F00020D9F7C00108953197CF01CB
S1132EF00895FC010590615070400110D8F7809549
S1132F0090958E0F9F1F0895FC01615070400190B1
S1132F100110D8F7809590958E0F9F1F0895CF9339
S1132F20DF93EC012B8120FF33C026FF0AC02F7BE7
S1132F302B838E819F8101969F838E838A8190E06B
S1132F4029C022FF0FC0E881F9818081082E000C7E
S1132F50990B009719F420622B831AC03196F983D8
S1132F60E8830EC0EA85FB85099597FF09C02B818C
S1132F70019611F080E201C080E1822B8B8308C0AE
S1132F802E813F812F5F3F4F3F832E83992702C0BD
S1132F908FEF9FEFDF91CF9108950F931F93CF93FE
S1132FA0DF93FB01238121FD03C08FEF9FEF2CC032
S1132FB022FF16C046815781248135814217530769
S1132FC044F4A081B1819D012F5F3F4F3183208361
S1132FD08C93268137812F5F3F4F3783268314C01C
S1132FE08B01EC01FB010084F185E02D0995892B0F
S1132FF0E1F6D80116968D919C9117970196179634
S11330009C938E931697CE01DF91CF911F910F91D0
S11330100895FB01238120FF12C026FD10C08F3FBD
S11330203FEF930761F082832F7D20642383268101
S113303037812150310937832683992708958FEFEB
S11330409FEF0895FA01AA27283051F1203181F128
S1133050E8946F936E7F6E5F7F4F8F4F9F4FAF4F9C
S1133060B1E03ED0B4E03CD0670F781F891F9A1FAF
S1133070A11D680F791F8A1F911DA11D6A0F711D63
S1133080811D911DA11D20D009F468943F912AE06F
S1133090269F11243019305D3193DEF6CF01089557
S11330A0462F4770405D4193B3E00FD0C9F7F6CF88
S11330B0462F4F70405D4A3318F0495D31FD405250
S11330C0419302D0A9F7EACFB4E0A69597958795E6
S11330D077956795BA95C9F70097610571050895C5
S11330E09B01AC010A2E0694579547953795279571
S11330F0BA95C9F7620F731F841F951FA01D089509
S1133100992788270895DC01CB01FC01E199FECFC2
S113311006C0FFBBEEBBE09A31960DB20D92415052
S11331205040B8F70895DC01CB0102C02D9105D0C1
S113313041505040D8F70895262FE199FECF9FBB08
S11331408EBB2DBB0FB6F894E29AE19A0FBE01969E
S10931500895F894FFCF7E
S113315645020000000058026A028D03E3024E0194
S11331660F02000000001F022E02450384024F01D5
S1133176D8030000E103E3030000003A050905C291
S1133186040000940456042604E50370054805006B
S11131960000000300000000730B800B00001B
S9030000FC
